:020000020000FC
:100000000FE310E407B91AB992E095BD00E018B902
:100010000CC009B1003841F1003479F10032C1F16E
:100020000031C9F0083009F0F1CFB3E8B4BDB2E057
:10003000B5BDB1E0A8E0B7BD0E945000BA0FB13025
:10004000D1F7BFEF0E945000B7BDBA1BBF3FD1F739
:100050000E945000DBCF90E086B588B90E94500026
:1000600093959F3099F2F8CF01E00E94500008B9B3
:10007000000F03950F3F51F2F8CF0FE308B90E942C
:1000800050000E9450000E9450000E945000BECFBD
:1000900001E00E94500008B9000F0038D1F7B6CF38
:1000A00020E0322F422F2395253009F4089533950F
:0E00B0003F3F09F4F8CF43954F3FE9F7F8CFF3
:00000001FF
