:020000020000FC
:100000000FE310E407B91AB992E095BD00E018B902
:100010000CC009B1003839F1003471F10032B9F186
:100020000031C1F0083009F0F1CFB3E8B4BDB2E05F
:10003000B5BDB0E0A4E0B7BD0E944F00B395BA0FC4
:10004000BF3FC9F70E944F00BA95BA1BB7BDB03089
:10005000C9F7DCCF90E086B588B90E944F00939530
:100060009F30A1F2F8CF01E00E944F0008B9000FC5
:1000700003950F3F59F2F8CF0FE308B90E944F00E4
:100080000E944F000E944F000E944F00BFCF01E02E
:100090000E944F0008B9000F0038D1F7B7CF20E019
:1000A000322F422F2395253009F4089533953F3F91
:0C00B00009F4F8CF43954F3FE9F7F8CF73
:00000001FF
