:020000020000FC
:100000000FE310E407B91AB992E095BD00E018B902
:100010000CC009B1003831F1003469F10032B1F19E
:100020000031B9F0083009F0F1CFB3E8B4BDB2E067
:10003000B5BDB0E0B7BD0E944E00B395BB0FBF3F4A
:10004000C9F7B7BD0E944E00BA95B451B030C9F798
:10005000DDCF90E086B588B90E944E0093959F3021
:10006000A9F2F8CF01E00E944E0008B9000F0395F5
:100070000F3F61F2F8CF0FE308B90E944E000E94D3
:100080004E000E944E000E944E00C0CF01E00E9430
:100090004E0008B9000F0038D1F7B8CF20E0322F5A
:1000A000422F2395253009F4089533953F3F09F4F5
:0A00B000F8CF43954F3FE9F7F8CF72
:00000001FF
