:020000020000FC
:100000000FE310E007B91AB992E095BD00E018B906
:1000100009B1003881F00034B9F0003201F100314B
:1000200009F0F4CF90E086B588B90E943700939527
:100030009F3061F3F8CF01E00E94370008B9000F4C
:1000400003950F3F19F3F8CF0FE308B90E9437006B
:100050000E9437000E9437000E943700D7CF01E08E
:100060000E94370008B9000F003881F2F9CF20E074
:10007000322F422F2395203209F4089533953F3FC4
:0C00800009F4F8CF43954F3FE9F7F8CFA3
:00000001FF
